:100000000C9438030C947F030C947F030C947F03AF
:100010000C947F030C947F030C947F030C947F0358
:100020000C947F030C947F030C940C280C94DE2812
:100030000C9453200C947F030C947F030C947F0347
:100040000C947F030C947F030C947F030C947F0328
:100050000C947F030C94A0200C947F030C947F03DA
:100060000C947F030C947F030C947F030C947F0308
:100070000C947F030C947F030C947F030C947F03F8
:100080000C947F030C947F030C947F030C947F03E8
:100090000C947F030C947F030C947F030C947F03D8
:1000A0000C947F030C947F030C947F03A60EA90E7F
:1000B000B10EB60EBB0EC00EC50ECA0ECF0ED40EBC
:1000C000D90EDE0EE00EE30EE60EE90EEC0EEF0E9C
:1000D000F10EF60EB615B615E815E81535165316D9
:1000E000741774175E16F316041704176417741741
:1000F00074176D1714181418261826181D182618AA
:10010000261826181418141822182618261822182B
:100110004B2972296A2A72296A2ABE29E1296A2A88
:10012000382A472A35001E001F0020002100220027
:10013000230024002500260027002D002E002A0081
:100140004C002B0014001A000800150017001C00BA
:1001500018000C00120013002F00300031000000C6
:10016000015104001600070009000A000B000D00F1
:100170000E000F0033003400320028000000E100C0
:1001800064001D001B00060019000500110010008E
:10019000360037003800E500E5000151E000E300DB
:1001A000E2002C000000000000002C002C00E60003
:1001B000E70002510251E400000029003A003B0030
:1001C0003C003D003E003F00400041004200430033
:1001D00044004500490001000100010052000100F7
:1001E0000100010001000100010001004A0052006D
:1001F0004D00010000000100500051004F000100BF
:1002000001000100010001004B0050004F000100FF
:100210000100000001000100AA00A9000100BC5C6F
:10022000005CCA5C010001004E00510001000100A9
:100230000100BC00AE00BB00010000000000000097
:1002400001000100010001000100010001000000A7
:10025000000000000000000000000000000000009E
:10026000000000000000000000000000000000008E
:10027000000000000000000000000000000000007E
:10028000000000000000000000000000000000006E
:10029000000000000000000000000000000000005E
:1002A000000000000000000000000000000000004E
:1002B000000000000000000000000000000000003E
:1002C000000000000000000000000000000000002E
:1002D000000000000000000000000000000001001D
:1002E00001000000000032190A00047F3F1F643241
:1002F00014643214783C1E1E140A05222325262875
:10030000292A2C2D2F3032333536383A3B3D3E40AA
:1003100042434547494A4C4E5051535557595A5CF0
:100320005E6062646668696B6D6F71737577797B07
:100330007D7F81838587898A8C8E90929496989A06
:100340009C9E9FA1A3A5A7A8AAACAEAFB1B3B4B61B
:10035000B8B9BBBCBEBFC1C2C3C5C6C7C9CACBCC76
:10036000CDCED0D1D2D2D3D4D5D6D7D7D8D9D9DA49
:10037000DADBDBDBDCDCDCDCDCDDDDDDDDDCDCDCBE
:10038000DCDCDBDBDBDADAD9D9D8D7D7D6D5D4D3E6
:10039000D2D2D1D0CECDCCCBCAC9C7C6C5C3C2C1BB
:1003A000BFBEBCBBB9B8B6B4B3B1AFAEACAAA8A718
:1003B000A5A3A19F9E9C9A98969492908E8C8A89D0
:1003C000878583817F7D7B79777573716F6D6B69AD
:1003D00068666462605E5C5A5957555351504E4C82
:1003E0004A4947454342403E3D3B3A383635333231
:1003F000302F2D2C2A292826252322FFAA7F55407D
:1004000000010101010101010101020202020202D7
:1004100002020203030303030303030404040404AA
:100420000404050505050506060606060707070771
:100430000708080808090909090A0A0A0B0B0B0C26
:100440000C0C0D0D0D0E0E0E0F0F0F1010111111C3
:100450001212131314141515161617171818191944
:100460001A1A1B1B1C1D1D1E1E1F202021222223A9
:100470002424252626272829292A2B2C2D2D2E2FEA
:1004800030313232333435363738393A3B3C3D3E01
:100490003F404142434445464748494A4C4D4E4FF0
:1004A00050515354555658595A5B5D5E5F616264B2
:1004B000656668696B6C6D6F7072737577787A7B3F
:1004C0007D7E8082838587888A8C8E8F9193959696
:1004D000989A9C9EA0A2A3A5A7A9ABADAFB1B3B5B6
:1004E000B7BABCBEC0C2C4C6C9CBCDCFD1D4D6D892
:1004F000DBDDDFE2E4E7E9EBEEF0F3F5F8FAFDFF30
:100500000403300000000E035900440036003000A0
:100510004D00510000000A0359004D0044004B00FB
:1005200000000403090409023B00020100A0FA09CB
:100530000400000103010100092111010001224012
:10054000000705810308000A0904010001030000F7
:100550000009211101000122BC00070582032000CF
:100560000A12011001000000084D594D60020001FF
:1005700002030105010902A10185020901A100058B
:1005800009190129051500250195057501810295B7
:1005900001750381010501093009311581257F9518
:1005A000027508810609381581257F950175088136
:1005B00006050C0A38021581257F9501750881060C
:1005C000C0C005010980A101850319012AB70015E2
:1005D0000126B700950175108100C0050C0901A125
:1005E00001850419012AA002150126A002950175B2
:1005F000108100C005010906A1018505050719E064
:1006000029E71500250195087501810205071900E4
:1006100029EF1500250195F07501810205081901E2
:100620002905950575019102950175039101C00594
:10063000010906A101050719E029E7150025019523
:1006400008750181029501750881010507190029C6
:10065000FF150026FF0095067508810005081901A1
:100660002905950575019102950175039101C00059
:1006700011241FBECFEFDAE0DEBFCDBF04B603FE0C
:1006800027C08091680390916903A0916A03B0919B
:100690006B038730904BA740B04BD1F410926803A6
:1006A0001092690310926A0310926B0314BE84B710
:1006B000877F84BF0FB6F894A89580916000886109
:1006C00080936000109260000FBEE0E0F8E30995AF
:1006D00011E0A0E0B1E0EAE1F8E502C005900D927A
:1006E000AE3CB107D9F723E0AEECB1E001C01D92FA
:1006F000A836B207E1F70E944A250C940B2C0C9403
:100700000000849A8C9A0895CF93C82F0E94F20318
:10071000882329F0C1FD02C08C9A01C08C98CF912A
:10072000089581E0089581E008950C94930308955D
:100730000C9497031F93CF93DF9300D000D01F92A8
:10074000CDB7DEB749835A836B83309142028981EA
:100750009A81311114C0662359F0222349F00E9476
:10076000501D182F682F89819A810E94F91C03C09F
:100770000E94241D182F69817A81812F04C00E9454
:10078000501D69817A810F900F900F900F900F90FC
:10079000DF91CF911F910C945A04FC01262F4081C8
:1007A00051816281738184810C949A03CF93DF938A
:1007B000EC0160E00E94CD03BE01DF91CF910C946B
:1007C00098030E94EC200E94881E811102C00E94A2
:1007D000311F0E9471100C9481030C9475060895CA
:1007E0000C94EF0381E00895CF93C82F0E94F0038B
:1007F0008C2F0E948403CF91089508950E940218BF
:100800000E94FD032FEF84E39CE021508040904044
:10081000E1F700C000000C94C6200F931F93CF9304
:10082000DF93EC0161E00E94CD038C01BE010E94C8
:1008300095038823A9F1BE01C8010E94DA0F88231D
:1008400079F1BE01C8010E944411882349F1BE011B
:10085000C8010E949611882319F1BE01C8010E94A7
:10086000C1128823E9F0BE01C8010E948F0E8823BF
:10087000B9F08A81882369F001158CE5180731F0F9
:100880000E3D1C4531F40E94311F0AC00E94FE0338
:1008900007C0CE01DF91CF911F910F910C9491036E
:1008A00080E0DF91CF911F910F91089580E090E05B
:1008B000089508952BE4829FC0011124FC012FE0CC
:1008C000729FE00DF11D1124E60FF11DEE0FFF1FC9
:1008D000EC5DFE4F859194910895880F991FFC015E
:1008E000EA51FD4F859194910895CF93DF930E9433
:1008F0005A040E948D05EC018115904508F041C015
:10090000C11580E4D80708F0D1C0C83ED10510F564
:10091000C03ED10508F0FDC0C83AD10578F4C53A0B
:10092000D10508F0A2C0C130D10509F4F2C008F425
:10093000EEC0C430D10508F0ECC0E9C0CF3BD10512
:1009400008F49BC0C03CD10508F4E1C0CE01805C36
:1009500091099EC0C11590E2D90758F4C11521E054
:10096000D20708F0D6C0C03FD10508F4D0C0D0658A
:10097000D0C0C11580E3D80708F08EC0CE019F70AB
:1009800087C0C11595E5D90708F043C0C11524E516
:10099000D20708F0A2C0C11582E5D80708F5C11535
:1009A00091E5D90708F085C0CE0174E0969587954A
:1009B0007A95E1F783709C2F937021E030E002C0BC
:1009C000220F331F9A95E2F73C68382BCF70C695FB
:1009D000C69580E2C89FE0011124C22BD32B99C099
:1009E0009E01237033278C2F86958695C115D3459C
:1009F00008F064C0C1E0D0E002C0CC0FDD1F2A9532
:100A0000E2F720E2829FC0011124C82BD92BDC68B9
:100A100080C0C11529E5D207A0F4C11588E5D80723
:100A200008F060C0C11596E5D90708F070C08C2F9A
:100A30000E9421068F71C82FD0E0DC2FCC27D06216
:100A400068C0C1152AE5D20708F451C0CE019056FE
:100A50008115904208F05BC08D2F8F710E94210696
:100A6000DD27D0628F71D82B54C0C55AD0E0C65A4A
:100A7000DE4FC881D0E0D0644CC0C85AD0E0CC0F63
:100A8000DD1FC45DDE4F0990D881C02DD46441C004
:100A90000E946D04EC013DC0CE019927D3FF03C035
:100AA000EC01D86C36C0EC01D06C33C0DF70D06A7A
:100AB00030C0DC2FCC27C16FD06A2BC0C1E0D0E0A2
:100AC00002C0CC0FDD1F2A95E2F720E2829FC00111
:100AD0001124C82BD92BDA681CC0DC2FCC27C46F9B
:100AE000D06A17C0DC2FCC27C06FD06A12C08C2F01
:100AF0008F700E94210694E0D695C7959A95E1F7EC
:100B0000CF70D0E0DC2FCC27D069C82B02C0C0E06A
:100B1000D0E0CE01DF91CF9108958238910569F13F
:100B2000B0F48133910509F46DC048F48932910520
:100B300009F463C08A32910509F469C008958533C8
:100B4000910509F455C089339105B9F00895833EA4
:100B5000910569F138F4803E9105B1F0823E91052E
:100B600009F10895863E9105A9F1873E9105B9F1F5
:100B7000843E910509F064C023C02091590320FDF3
:100B80004FC021FD4DC008958091590380FD44C0A0
:100B900080915A0380FF44C08091590384FD42C074
:100BA00083EE4DC08091590382FF38C0F5CF80910C
:100BB000590382FD33C080915A0380FD31C0ECCFD0
:100BC00080915A0381FF32C08091590384FD2AC06D
:100BD00087EE35C08091590383FF26C0F5CF809101
:100BE000590383FD21C080915A0381FD1FC0ECCFC2
:100BF0008091590385FD1CC01DC08091590385FD5E
:100C000019C016C08091590386FD16C017C0809187
:100C1000590386FD13C010C089E311C082EE0FC0D6
:100C200080EE0DC080E00BC086EE09C084EE07C0E8
:100C300089E205C085E303C08AE201C081E390E058
:100C400008959091590392FF0DC0282F28712830E4
:100C500019F4877F846006C0282F2471243011F492
:100C60008B7F886093FF0DC0282F2871283119F4DD
:100C7000877E846106C0282F2471243111F48B7E75
:100C8000886120915A0320FF0DC0382F3871383009
:100C900019F4877F816006C0382F3171313011F42B
:100CA0008E7F886021FF0DC0282F2871283119F40C
:100CB000877E816106C0282F2171213111F48E7E3B
:100CC000886194FD877E0895E82FF0E0EE0FFF1F06
:100CD000EB5EFC4F808191810895089580EA8A95AA
:100CE000F1F7089508950C9472060C947306CF934F
:100CF000DF93ACE6B1E041E751E061E070E08D9157
:100D0000E82FE295EF70F0E021A18F70EB0102C0B7
:100D1000CC0FDD1F8A95E2F7CE019C2F9095922390
:100D200091A392A1892B82A34A175B0741F7ADE5F6
:100D3000B1E04CE651E061E070E08D91E82FE29582
:100D4000EF70F0E021A18F70EB0102C0CC0FDD1F2E
:100D50008A95E2F7CE019C2F9095922391A392A1C0
:100D6000892B82A34A175B0741F7EBE0F3E0A5E18B
:100D7000B3E085E193E0119211921D921D928E17BE
:100D80009F07C9F785E00E945607DF91CF910C9429
:100D9000E1036F927F928F929F92AF92BF92CF9218
:100DA000DF92EF92FF920F931F93CF93DF938CE626
:100DB000C82E81E0D82E0BE013E095E1A92E93E038
:100DC000B92E712C88248394912CF60181916F01A6
:100DD000C82FC295CF70D0E099A18F70740101C067
:100DE000EE0C8A95EAF7892F8E2989A38AA16E2CA9
:100DF000609486218AA30E946E06EDE5F1E040E052
:100E000050E020E030E06191A62FA295AF70B0E0F5
:100E100090968C9190E06F7002C0959587956A9539
:100E2000E2F780FD08C0C401042E02C0880F991F9C
:100E30000A94E2F702C080E090E0282B392B4F5F44
:100E40005F4F4F305105F9F689A1682269A28AA146
:100E5000E82AEAA2F801808191812817390721F058
:100E60003183208381E001C080E0782A0E5F1F4F2C
:100E7000A016B10609F0A9CF272D45E065E173E082
:100E80008BE093E00E9457070E94ED03872DDF91CE
:100E9000CF911F910F91FF90EF90DF90CF90BF9077
:100EA000AF909F908F907F906F9008950895FF92DC
:100EB0000F931F93CF93DF93F82E092F162FD72F61
:100EC000C42F222349F081E08093D0010E94852025
:100ED0009093CF018093CE018091D0018823D9F0E7
:100EE0008091CE019091CF010E949120069798F0B9
:100EF000EF2DF02FA12FBD2F80E090E04C2F50E080
:100F00008417950734F4219131912D933D930196E7
:100F1000F7CF1092D001DF91CF911F910F91FF90E9
:100F20000895EF92FF920F931F93CF93DF938B015E
:100F3000682F11110AC0442329F0E82FF0E0E05097
:100F4000FC4F6491762F862F75C0212F30E0E82F5B
:100F5000F0E0442321F0E050FC4FE491F0E046E063
:100F6000049FC0011124CFEFD0E0BE010E94BA2A35
:100F70004BEA4603C001479F900D1124800F911D3D
:100F8000800F911D982F990F890FAE01421B530BB3
:100F90004E9FD0014F9FB00D5E9FB00D11249B2F2F
:100FA000189FA0011124452F55278E01041B150BF6
:100FB0000E9FA0010F9F500D1E9F500D11247E010A
:100FC000E81AF108E29E8001E39E100DF29E100DDA
:100FD0001124212F3327C21BD30BCE9F9001CF9F0B
:100FE000300DDE9F300D112462307105A9F048F4F8
:100FF0006115710569F061307105C9F48B2F752F8A
:101000000DC06430710581F058F06630710579F4D7
:101010007E2F8B2F932F0DC0832F7B2F9E2F09C0E8
:101020008E2F7B2F952F05C08E2F732F02C07E2F02
:10103000852F692FDF91CF911F910F91FF90EF9036
:10104000089541E00E94910708950895CF93DF939A
:10105000762FE901682F842F0E9421087983688305
:101060008A83DF91CF91089580911F03282F2695C1
:1010700030E02115310519F48170826005C02B32F2
:10108000310524F08170846580931F03089588E002
:1010900090E00C94AC2BCF92DF92EF92FF926B0119
:1010A0007C010E943408B701A60188E090E0FF901F
:1010B000EF90DF90CF900C94CA2BEFE1F3E083E048
:1010C000808311828FEF8283838314826081718198
:1010D000828193810C944B0880911F0380FF02C092
:1010E0008695089580E0089590912303933018F435
:1010F0009F5F90932303882351F060911F037091A9
:10110000200380912103909122030C944B080895B1
:1011100081E00C94740890912303992319F0915065
:1011200090932303882351F060911F037091200353
:1011300080912103909122030C944B08089581E043
:101140000C948B0870E00C948110609108018091E0
:101150001F0380FF0AC08091070123E0829FC00126
:1011600011248C5D9C4F0C94A208809109019091F0
:101170000A01891780F7E82FF0E09F01220F331F43
:10118000E20FF31FEC5DFC4F1182108212828F5F21
:10119000F0CF90911F0390FF16C09091090120910C
:1011A0000A01921770F4E92FF0E0DF01AA0FBB1FCC
:1011B000EA0FFB1FEC5DFC4F8183608342839F5FDE
:1011C000F0CF0C94A5080895CF93DF9300D01F9221
:1011D000CDB7DEB790911F0390FF0AC09E012F5F2D
:1011E0003F4F0E9426084B8169818A810E94C9086D
:1011F0000F900F900F90DF91CF910895CF93DF93D1
:10120000EC01EC81F0E0E550FD4F4491EFE1F3E0BB
:10121000628181810E94E4088C818F5F8C83DF91E1
:10122000CF910895CF93DF93EC01EFE1F3E0438199
:1012300062818C810E94E4088C818F5F8C83DF91B6
:10124000CF9108950F931F93CF93DF9300D01F92F8
:10125000CDB7DEB78C018091D10181110AC09E010A
:101260002F5F3F4F4FEF6FEF0E9426088A818093D8
:10127000D101F8018481813051F028F0823061F48D
:101280004091D1010AC08091D10140E007C0609136
:10129000D10140E080E003C040E080E060E00E94D7
:1012A000C908F801848190E0019663E070E00E9433
:1012B000CE2A84830F900F900F90DF91CF911F91D2
:1012C0000F910895AF92BF92CF92DF92EF92FF926B
:1012D0000F931F93CF93DF9300D01F92CDB7DEB74C
:1012E000182FF62E042FE22E90911F0390FF6DC051
:1012F000E92FE695AE2FB0E0AF58BE4F8C918093AA
:101300002B029E7F923061F49E012F5F3F4F812F11
:101310000E9426084B8169818A810E94C90843C0C6
:10132000823019F4009122033EC0863019F41091E6
:10133000200339C08930D9F38931A9F5E9518E2FBD
:101340008170D82EE695F0E0E550FC4FA590B49062
:10135000C12CBB2460910B01C61618F52C2D30E072
:10136000A29EC001A39E900DB29E900D112470E02C
:101370000E94BA2A812FD11002C0860F01C0861B9D
:1013800090910901290F311DA901440F551F240F08
:10139000351F2C5D3C4F402F6F2D0E942608C394B3
:1013A000D9CF0E94A50810932003F0922103009347
:1013B0002203EE2051F060911F0370912003809171
:1013C0002103909122030E944B080F900F900F90E1
:1013D000DF91CF911F910F91FF90EF90DF90CF9011
:1013E000BF90AF900895EFE1F3E09181282F438102
:1013F000628188E0890F0C94620981E00C94F30902
:10140000EFE1F3E09181282F4381628188EF890F1A
:101410000C94620981E00C94000AEFE1F3E0628130
:1014200028E0620F08F46FEF282F438181810C942C
:10143000620981E00C940D0AEFE1F3E0628128E09B
:10144000621B08F460E0282F438181810C946209BB
:1014500081E00C941C0AEFE1F3E0438128E0420FA5
:1014600008F44FEF282F628181810C94620981E09A
:101470000C942B0AEFE1F3E0438128E0421B08F4CF
:1014800040E0282F628181810C94620981E00C94F4
:101490003A0A20E00C946209FF920F931F93CF93B6
:1014A000DF93EC01F12C0FEF10E060910B01F616C9
:1014B000F0F4809109012F2D30E0280F311DC90172
:1014C000880F991F280F391F2C5D3C4F70E0C80111
:1014D0000E94CE2A962F8C81409122036091210395
:1014E000F99E800D11240E942608F394DECF0E94FD
:1014F000A5089A818C8190FF02C08F5F01C0815046
:101500008C83DF91CF911F910F91FF900895BF922F
:10151000CF92DF92EF92FF920F931F93CF93DF93BF
:10152000FC01828180FF02C00FEF01C001E010E0EA
:1015300080910B01181708F040C080910901C12E5D
:10154000D12CE601C80FD11DCE01880F991FC80FFD
:10155000D91FCC5DDC4F198218821A8234E0E32E49
:10156000F12CB12C8091D3018B0D813114F08F704F
:1015700005C087FF03C090910B01890F082E000C56
:10158000990BC816D90691F4809122038E9DA00173
:101590008F9D500D112455954795559547959E0162
:1015A00060912103809120030E942608B00EF1E093
:1015B000EF1AF108B9F61F5FBBCF0E94A508809112
:1015C000D301013031F4811102C080910B018150AF
:1015D00007C090E0019660910B0170E00E94CE2A56
:1015E0008093D301DF91CF911F910F91FF90EF90E6
:1015F000DF90CF90BF900895CF9380910901909193
:101600000A01891770F4E82FF0E09F01220F331FC1
:10161000E20FF31FEC5DFC4F1182108212828F5F8C
:10162000F0CFC0E060910B01C617C0F5EC2FF0E0E1
:1016300070E0CF010E94CE2A20910901820F2091F3
:10164000D201022E000C330B90E0E217F307CCF02E
:1016500020910601022E000C330B2E173F078CF051
:101660009C01220F331F820F931F9C012C5D3C4F66
:101670004091220360912103809120030E9426085B
:101680000BC0FC01EE0FFF1F8E0F9F1FFC01EC5DD6
:10169000FC4F118210821282CF5FC4CF0E94A50836
:1016A000209105018091D201820F8093D201909107
:1016B0000601920F9093060119165CF4082E000C97
:1016C000990B40910B0150E0415051098417950747
:1016D0001CF0219520930501CF9108958F929F9240
:1016E000AF92BF92CF92DF92EF92FF920F931F9330
:1016F000CF93DF938C01FC014481C42FD0E09E0185
:10170000DE010E94122B9B01AC010E94282B6B0171
:101710007C01E0E2F0E0EC1BFD0BA5E5B0E09B01F5
:10172000AC010E94282B4B015C019F01DF010E944C
:101730000A2B9B01AC010E94332B9B01AC012C0DA9
:101740003D1D4E1D5F1DC501B4010E94E22AC22F3E
:10175000D22F2A3228F4F3E02F9F900111240DC0DC
:1017600025E530E02C1B3109C901880F991F280F8E
:10177000391F37FF02C02F5F3F4F35952795C22F86
:10178000C095F12C85E5E82EED1A80910B01F81635
:10179000C8F4F1FC02C08E2D01C08D2F909109017B
:1017A0002F2D30E0290F311DA901440F551F240FA3
:1017B000351F2C5D3C4F4C2F609121030E94260861
:1017C000F394E3CF0E94A508F8018481811102C03F
:1017D00091E003C0803219F49FEF9093040190913F
:1017E0000401890FF8018483DF91CF911F910F913C
:1017F000FF90EF90DF90CF90BF90AF909F908F9031
:1018000008950F931F93CF93DF93EC0100E010E056
:1018100080910B01282F30E00217130724F59091D7
:1018200009019801290F311DA901440F551F240FEB
:10183000351F2C5D3C4F869590E04C8108171907A9
:101840001CF4442331F002C0411103C04091220333
:1018500001C040E060912103809120030E9426088E
:101860000F5F1F4FD5CF0E94A5088C8190E0019695
:10187000817099278C83DF91CF911F910F910895EB
:101880008F929F92AF92BF92CF92DF92EF92FF9290
:101890000F931F93CF93DF93FC01B280948081E07C
:1018A000848300E015E05BE4A52E88248394EE2475
:1018B000EA94F12C7BE4C72ED12C80910B01081700
:1018C00008F08FC0C02FD0E01C9FF0011D9FF00DCD
:1018D0001124EC52FE4F911003C01382128267C094
:1018E0002381222389F1215023833481332319F06A
:1018F0009A2D921B01C0922F809122031C9FF00110
:101900001D9FF00D1124EC52FE4F899FC001112440
:10191000B6010E94BA2A6283211104C0332311F058
:101920001482A38222E02B1508F441C01C9FF00111
:101930001D9FF00D1124EC52FE4F809120038083F7
:1019400080912103818333C00E94872B8230914094
:1019500074F582E08B1530F40E94872BB7010E944A
:10196000CE2A02C0809120031C9FF0011D9FF00D24
:101970001124EC52FE4F808322E02B1558F40E9474
:10198000872B209121032695622F70E00E94CE2A9A
:10199000820F02C0809121031C9FF0011D9FF00D5A
:1019A0001124EC52FE4F81831282A38284828091A3
:1019B00009019E01280F311DC901880F991F280FA9
:1019C000391F2C5D3C4F1C9FF0011D9FF00D112411
:1019D000EC52FE4F4281618180810E9426080F5F98
:1019E0006CCFDF91CF911F910F91FF90EF90DF901F
:1019F000CF90BF90AF909F908F900C94A508EFE18F
:101A0000F3E080818E7F8083608171818281938108
:101A10000E944B0810922C022FEF80E792E0215099
:101A200080409040E1F700C000000C94A508609150
:101A30001F03669570E04BE050E08CE091E00E945F
:101A4000972B892B19F481E080932C020E9485202A
:101A50009093250280932402089590911F0390FF94
:101A600035C09170811102C0926006C08B3210F0B7
:101A7000946502C0880F982B90931F03662351F042
:101A800060911F03709120038091210390912203A4
:101A90000E944B0860911F03669570E04BE050E098
:101AA0008CE091E00E94972B892B19F010922C0268
:101AB00002C00E94170D81E080932702409122030B
:101AC00060912103809120030C94490A0895682FA6
:101AD00090911F03969581E0890F8B3208F081E089
:101AE0000C942D0D81E00C94670D682F90911F03CD
:101AF00096958FEF890F09F48AE20C942D0D81E001
:101B00000C94750D61E00C942D0DEFE1F3E08081F4
:101B10008160808386950C94820D80911F0380FDE7
:101B20000C94FF0C0C94850D60E00C942D0D8091AD
:101B30002A0281112EC00E94881E811104C00E94B9
:101B4000311F0E945D080E94470860931F03709335
:101B5000200380932103909322036E7F61F40E94FF
:101B60005D080E94470860931F03709320038093D1
:101B70002103909322030E94340810922C0280913A
:101B80001F0380FF03C086950E94940D81E080931F
:101B90002A0208950F931F93CF93DF9380912C0215
:101BA000882309F49CC080912B02E0911F03E695E5
:101BB000E81BE0932602823049F4F0E0E950FD4F43
:101BC000E491CE2FD0E00EEF18E059C0863049F4F2
:101BD000F0E0EC50FD4FE491CE2FD0E002E119E0AF
:101BE0004EC0893051F4E695F0E0EF50FD4FE4919E
:101BF000CE2FD0E00CE41AE042C08F3051F4E695CD
:101C0000F0E0E251FD4FE491CE2FD0E007E81AE07A
:101C100036C0853149F4F0E0E551FD4FE491CE2F17
:101C2000D0E00CEF1AE02BC08831D9F0833239F4C0
:101C3000E9EEF2E0C591D49102E219E020C08432CD
:101C4000A9F08532C1F48E2F63E00E94AE2AE92FFD
:101C5000F0E0EA51FD4FE491CE2FD0E000E41CE02B
:101C60000EC0C8E2D0E00EE61BE009C0C4EFD1E030
:101C700001E01CE004C0C0EDD7E005E218E080916F
:101C80002702882389F0109227020E9485209E0156
:101C900020953095820F931F909325028093240204
:101CA000109229021092280280912402909125021C
:101CB0000E9491208C179D0790F0E0912402F091F2
:101CC0002502CE0FDF1FD0932502C093240284E2A9
:101CD00092E0F801DF91CF911F910F910994DF916C
:101CE000CF911F910F910895882311F0FA0101C03F
:101CF000FB010994CF93DF93C82FD62F0E946C0865
:101D00008C1740F00E946C088D1720F4DF91CF9162
:101D10000C94720D8C2FDF91CF910C94820D0F9348
:101D20001F93CF93FB01C281CC2309F463C08C01C4
:101D30000E94D11D8272F801E25CFC45E431F1059C
:101D400008F059C0EA5AFF4F0C94042B0E948D0DE5
:101D500006C04FE75DE062E77DE00E94740EC0E0E0
:101D60004AC042E75DE06FE77DE0F7CF4AE05AE026
:101D70006DEF79E0F2CF4DEF59E06AE07AE0EDCF18
:101D800048E25AE069E17AE0E8CF49E15AE068E2E6
:101D90007AE0E3CF46E45AE067E37AE0DECF47E358
:101DA0005AE066E47AE0D9CF4FE958E068E878E095
:101DB000D4CF48E858E06FE978E0CFCF81E017C092
:101DC00065E082E010C068E086E00DC06EE089E06A
:101DD0000AC064E18FE007C067E185E104C088E1E3
:101DE00006C062E289E10E947A0EB9CF83E20E94C6
:101DF000820DB5CFC1E08C2FCF911F910F91089527
:101E00000E94881E811102C00E94311F0E94B91ECB
:101E100080935403282F26952695269530E026306A
:101E2000310524F0877088628093540380915403B5
:101E300080FF04C086958695869501C080E00C944D
:101E40000F1020915403822F869586958695482FF2
:101E500050E04530510554F48F5F982F990F990F3A
:101E6000990F822F8770892B80935403809154039C
:101E70008160809354030E94BD1E80915403869517
:101E8000869586950C940F1080915403982F969503
:101E900096959695A1F0915E990F990F990F87707D
:101EA000892B80935403887F91E009F490E080911E
:101EB000540390FB80F9809354030E94BD1E8091CF
:101EC00054038695869586950C940F108091540343
:101ED00080FD13C0816080935403813019F489E040
:101EE00080935403809154030E94BD1E809154033B
:101EF0008695869586950C940F10089580915403CD
:101F000080FF08C08E7F809354030E94BD1E80E036
:101F10000C940F1008958091540380FD0C947E0F53
:101F20000C94660F90915403892F8695869586951B
:101F30008F5F8F719770863038F4880F880F880F05
:101F4000892B8093540302C09093540380915403CF
:101F5000887F91E009F490E08091540390FB80F930
:101F6000809354030E94BD1E8091540386958695EC
:101F700086950C940F10863008F085E090915403FC
:101F80009770282F220F220F220F922B9093540329
:101F9000987F21E009F420E09091540320FB90F910
:101FA000909354030C940F100E94BB0F8091540324
:101FB0000C94BD1E9C01FB018281882349F12D3BBD
:101FC000FCE53F07C9F040F42B3BECE53E0769F028
:101FD0002C3B3C4561F008952F3B9CE5390791F07F
:101FE00070F0203C3C4589F0089585E001C080E018
:101FF0000E94D40F80E008950E94440FFBCF0E94FE
:10200000210FF8CF0E948B0FF5CF0E94920FF2CFD5
:1020100081E00895279A2F9808952F980895CF92D8
:10202000DF92EF92FF92CF93C82F863050F4811148
:1020300009C080918000877F809380000E940D10EE
:1020400006C0C5E0809180008860809380002C2FBE
:1020500030E0AFEFBFEF0E94122B25E030E040E010
:1020600050E00E94E22AC9012C3764E1360728F4C7
:1020700069E070E00E94BA2A29C0DA01C9018A50D9
:10208000974DAF4FBF4F6627782F892F9A2F25EF97
:1020900038E241E050E00E94E22A69017A01CA0177
:1020A000B9010E949E2A9B01AC01C701B6010E94A2
:1020B0009E2ABB27A92F982F872F009721E0A207E0
:1020C000B10511F0BC0102C06FEF7FEF70938D007E
:1020D00060938C00CF91FF90EF90DF90CF900895A8
:1020E00008950E940A108AE08093800089E180931D
:1020F00081008FEF9FEF90938700809386000C9470
:10210000000F6A9A2EB12B7F3EB134604FB7F8941E
:10211000FC01CB01880F991F680F791F6E0F7F1F7D
:10212000E617F70789F0819198E03EB9000000C0FA
:1021300087FF2EB9880F000000C000C000C02EB974
:1021400000C09A9591F7ECCF4FBF8FE594E00197CF
:10215000F1F700C000000895AF92BF92CF92DF92D6
:10216000EF92FF920F931F93CF93DF937C015B015C
:10217000C42FD22FFC0182818823F9F040932F02D3
:102180000E94852090932E0280932D0280E28C0F76
:10219000883008F06EC0C77081E001C0880FCA9512
:1021A000EAF7DF91CF911F910F91FF90EF90DF90B1
:1021B000CF90BF90AF900C94721580912F0248136E
:1021C00035C080912D0290912E020E9491206C01C9
:1021D000B701C5010E94BB1AC816D90638F510E22E
:1021E0001D0FCD17B9F080E28C0F883040F4C77016
:1021F00081E001C0880FCA95EAF70E94791518306E
:1022000058F581E09D2F977001C0880F9A95EAF7E5
:102210000E947215802F0E945F15183050F5D770FC
:1022200081E001C0880FDA95EAF70AC080E28C0FDE
:102230008830F8F4C77081E001C0880FCA95EAF7CA
:10224000DF91CF911F910F91FF90EF90DF90CF9092
:10225000BF90AF900C947915802FDF91CF911F9193
:102260000F91FF90EF90DF90CF90BF90AF900C94C4
:102270005F15DF91CF911F910F91FF90EF90DF904D
:10228000CF90BF90AF9008950F939C01CB01233F57
:102290004CE5340731F188F4283DFCE53F07D9F0DF
:1022A000293D4CE5340779F1273D3C45A9F506E287
:1022B00021EE41EE67ED7CE52BC0253FFCE53F07B5
:1022C000E1F0A8F0263F3C4539F507E225EE46EE61
:1022D00066EF7CE51DC007E225EE45EE68ED7CE586
:1022E00017C006E221EE40EE63EF7CE511C007E285
:1022F00025EE44EE64EF7CE50BC006E221EE42EEF3
:1023000065EF7CE505C008E221E045EE69ED7CE57E
:102310000E94AC1080E008C0FC018281882319F083
:1023200010922F0201C081E00F910895CF93DF93A7
:10233000EC01FB018281882309F41FC1C230FCE556
:10234000DF0708F41BC1C6319CE5D90738F09E01B0
:102350002A5F3C452930310508F010C10E949B1EC0
:1023600090935A0380935903C031ECE5DE0709F4DA
:10237000C3C008F041C0C8308CE5D80709F49AC042
:10238000F0F4C430ECE5DE0709F487C068F4C2302D
:102390008CE5D80709F477C0C330DC4509F0E3C009
:1023A00080915903826076C0C630ECE5DE0709F4FF
:1023B0006EC008F07BC08091590388606BC0CC3040
:1023C0008CE5D80709F485C068F4CA30ECE5DE076F
:1023D00009F474C008F079C00E9402188091590372
:1023E000806858C0CE308CE5D80709F476C008F074
:1023F0007FC0809159038BC0CB3FECE5DE0709F429
:102400004FC018F5C3318CE5D80709F47DC078F4C6
:10241000C131ECE5DE0709F473C0C231DC4509F0D7
:10242000A2C00E940218809159038F7733C0C53132
:102430008CE5D80709F472C008F486C0CA3FDC45B1
:1024400009F091C080915A033EC0CF3FFCE5DF0701
:1024500009F45FC058F4CD3F9CE5D90709F444C0A6
:1024600008F43FC080915A0382602DC0C130FDE561
:10247000DF0709F475C008F45DC0C230DD4509F01E
:1024800072C080E06EC080915903816003C080916A
:10249000590380618093590366C08091590311C02C
:1024A00080915A03826080935A035DC080915903E2
:1024B0008062F0CF809159038064ECCF8091590302
:1024C00088608460E7CF8160EECF809159038E7F72
:1024D000E1CF809159038D7FDDCF80915903877FB4
:1024E000D9CF80915A0318C080915A038D7FDBCFDA
:1024F000809159038F7ECECF809159038F7DCACFB3
:10250000809159038F7BC6CF80915903877F8B7F42
:10251000C1CF80915A038D7F8E7FC5CF80915903A3
:1025200082FB222720F991E0922790FB82F990FB11
:1025300083F9B0CF80915A03982F909591708E7F38
:10254000892B90FB81F9AFCF0E940218809159032B
:1025500087FB222720F991E0922790FB87F99ACFF9
:1025600081E00E94331F8091590390915A030E9489
:10257000AC1E0E94021880E001C081E0DF91CF9183
:102580000895CF93DF9386319C4541F5EB010E947E
:10259000D11D982F8A81209117013091180188232D
:1025A00079F09A7A81E009F480E080933002911109
:1025B00002C069E201C065E3C9010E94CE1F0AC0E2
:1025C00080913002811102C069E201C065E3C90156
:1025D0000E94D91F0E941F1E80E001C081E0DF9190
:1025E000CF91089590933602809335020895E0913B
:1025F0003502F0913602309721F00190F081E02D04
:10260000099480E00895E0913502F0913602309708
:1026100099F020912B01222359F02091590327FF93
:1026200007C0DC012C9111962C93119725E02C9377
:102630000280F381E02D09940895E0913502F09134
:102640003602309739F022E0DC012C930480F581CA
:10265000E02D099408952091330230913402281717
:10266000390771F09093340280933302E091350280
:10267000F0913602309721F00680F781E02D099421
:10268000089520913102309132022817390771F0F4
:102690009093320280933102E0913502F09136023C
:1026A000309721F00084F185E02D0994089585B7D5
:1026B000806885BF85B7806885BF089508950C94AC
:1026C0005E130C945F130C945E130C945E130E94C3
:1026D00057130E9463130C94611381E008950C94C6
:1026E0006D130E947C200E9477060E9400210E94A8
:1026F000000F0E94970D0C9465137F928F929F920A
:10270000AF92BF92CF92DF92EF92FF920F931F93FF
:10271000CF93DF93CDB7DEB72A970FB6F894DEBF1D
:102720000FBECDBF0E94C9060E946F13811111C058
:102730008FEF89838A831B820E9485208160782F96
:102740009D838C8349815A816B818D810E943114D4
:102750004FC048E3A42E42E0B42E00E010E0702EFB
:10276000802F0E9464066C01F501819091905F01B9
:10277000882699268114910431F40F5F1F4F05308C
:10278000110569F7D5CF8091DA0281FD0E946D06AF
:1027900080E0EE24E394F12C94012E213F21232BA1
:1027A00009F18E837F82CE20DF2081E0CD2809F4DD
:1027B00080E088870E9485208160782F9A878987AA
:1027C0004E815F8168858A850E943114000F111F38
:1027D000F801E85CFD4F80819181E826F926F182BD
:1027E000E08206C08F5FEE0CFF1C8F30A9F6C5CFCC
:1027F0000E94CA0D0E9470100E94AF220E94F71220
:10280000909137028917C9F00E94F712809337021E
:102810002A960FB6F894DEBF0FBECDBFDF91CF91E1
:102820001F910F91FF90EF90DF90CF90BF90AF90EE
:102830009F908F907F900C94F4032A960FB6F89493
:10284000DEBF0FBECDBFDF91CF911F910F91FF90E3
:10285000EF90DF90CF90BF90AF909F908F907F9040
:102860000895CF93DF93CDB7DEB72B970FB6F894CB
:10287000DEBF0FBECDBF4F83588769877A878B87AE
:10288000DE01119686E0FD0111928A95E9F785E057
:10289000FE01379601900D928A95E1F749815A81A0
:1028A0006B817C818D819E810E94BE1A2B960FB612
:1028B000F894DEBF0FBECDBFDF91CF910895FC012C
:1028C000808191810E94921D0895CF93882309F4FD
:1028D00098C0C82F8238A1F469E3809117019091C4
:1028E00018010E94CE1F0E941F1E2FEF81EE94E060
:1028F000215080409040E1F700C0000069E315C01E
:102900008338E1F463E580911701909118010E94EA
:10291000CE1F0E941F1E2FEF81EE94E021508040B9
:102920009040E1F700C0000063E5809117019091AD
:1029300018010E94D91FCF910C941F1E8438A1F456
:1029400067E480911701909118010E94CE1F0E94A8
:102950001F1E2FEF81EE94E0215080409040E1F760
:1029600000C0000067E4E1CF8CEF8C0F813AD0F417
:102970006C2F80911701909118010E944E1F88239F
:1029800049F06C2F80911701909118010E94D91F76
:102990000E941F1E6C2F80911701909118010E94B8
:1029A000CE1FC9CF80E28C0F883048F4C77081E019
:1029B00001C0880FCA95EAF70E94D41DBCCFEBE591
:1029C000EC0FE33040F4F0E0E653FE4F808190E0FE
:1029D000CF910C942B13E8E5EC0FE73150F4F0E0C5
:1029E000EE0FFF1FE456FE4F80819181CF910C9432
:1029F0004113C03F30F08C2F0E94A421CF910C9442
:102A00009122CF910895882309F458C0823859F44F
:102A100069E380911701909118010E94CE1F0E94D6
:102A20001F1E69E30CC0833891F463E580911701A0
:102A3000909118010E94CE1F0E941F1E63E5809195
:102A40001701909118010E94D91F0C941F1E843801
:102A500059F467E480911701909118010E94CE1FEC
:102A60000E941F1E67E4EBCF9CEF980F913A10F481
:102A7000682FE5CF90E2980F983050F4877091E07E
:102A800001C0990F8A95EAF7892F0E94DA1DDDCFE0
:102A90009BE5980F933020F480E090E00C942B138A
:102AA00098E5980F973120F480E090E00C94411362
:102AB000803F20F00E940C220C9491220895CF9325
:102AC000C82F0E946514C93349F42FEF87EE93E0B5
:102AD000215080409040E1F700C000008C2FCF9142
:102AE0000C940315882321F00E94D41D0C941F1E02
:102AF0000895882321F00E94DA1D0C941F1E08956A
:102B0000CF92DF92EF92FF920F931F93CF93DF93B9
:102B10007C01062FC72FFC01158112951F70D281F1
:102B2000D1110E94F11D0E94CA1D882399F0DD2356
:102B300089F08C2F807F803421F080E2800F8830F4
:102B400048F082E00E94691E0E94CA1D91E0D82EC2
:102B5000D92601C0D12CCC2EC2948FE0C8228C2D56
:102B600090E0FC01E659FF4F0C94042B8C2F807FE2
:102B7000CF70882311F0C295C07FDD2399F0CC235C
:102B800009F48DC180E2800F883010F0011104C07B
:102B90008C2F0E94D41D03C08C2F0E94E41D0E9424
:102BA0001F1E7DC1802F0E940315CC2309F49CC1F8
:102BB00080E2800F883010F0011104C08C2F0E9439
:102BC000DA1D03C08C2F0E94EA1D0E941F1E8CC1BB
:102BD0008C2F807FCF70803211F0C295C07F002390
:102BE00019F00130C9F022C0DD2371F0112341F04A
:102BF000113031F40E94041E8C2B0E940C1E74C1F3
:102C00000E94041E8C2B1DC0112319F0113009F4F1
:102C10006BC10E94151E25C0DD2321F0163008F07F
:102C200063C10EC0153008F05FC11BC0DD2361F029
:102C3000112331F0F701858180FF31C18F708583C9
:102C40008C2F0E94721550C1112359F0093309F0DD
:102C500037C1FFEF27EE83E0F15020408040E1F7DD
:102C60002DC18C2F0E9479153FC18C2F869586959A
:102C7000837019F0813061F037C1DD2321F0802F9E
:102C80009C2F937002C080E090E00E942B1334C10F
:102C9000DD2321F0802F9C2F937002C080E090E014
:102CA0000E94411329C1802FDD2319F00E94A42125
:102CB00002C00E940C220E9491221EC18C2F8370A0
:102CC00009F045C0D11114C1402F42954695477077
:102CD000440F440F602F6F70862F90E0A0E0B0E0AB
:102CE000042E04C0880F991FAA1FBB1F0A94D2F795
:102CF00004FF10C00FE010E020E030E004C0000F3F
:102D0000111F221F331F4A95D2F700951095209569
:102D1000309503C000E010E09801C695C695C370D9
:102D2000BC01CD01602B712B822B932BC23049F05B
:102D300058F4C13019F00E940F1CDAC00E94FD1B2C
:102D4000D7C00E94211CD4C00E94FB1BD1C0DD2330
:102D500019F08C2F817001C08695882309F4C8C0B2
:102D6000402F429546954770440F440F602F6F7077
:102D7000862F90E0A0E0B0E0042E04C0880F991FD9
:102D8000AA1FBB1F0A94D2F704FF10C00FE010E087
:102D900020E030E004C0000F111F221F331F4A95AE
:102DA000D2F7009510952095309503C000E010E013
:102DB0009801C695C695C370BC01CD01602B712BDF
:102DC000822B932BC23049F058F4C13019F00E9485
:102DD000D41C8EC00E94C21C8BC00E94E61C88C0FE
:102DE0000E94351C85C0CF70DD2339F08C2F0E94E6
:102DF0005B1C802F0E9472157BC0802F0E9479156A
:102E00008C2F0E947C1C74C0023F01F128F4003F0B
:102E100041F0013FA1F03FC0033FF9F0043F39F119
:102E20003AC0DD2341F0153008F05EC08C2F8F7161
:102E30000E94A11C59C0163008F056C0F7CFDD2300
:102E400039F08C2F8F710E945B1C4EC0DD23C9F3BB
:102E50008C2F8F710E947C1C47C0DD2329F08C2FA2
:102E60008F710E94461C40C00E94411C3DC0DD2362
:102E700049F0CF718C2F0E945B1C63E08C2F0E9465
:102E8000541E32C081E00E94691E123068F182E057
:102E90000E94691E29C0DD2331F0112391F2802F99
:102EA0000E94651421C0112399F2093349F49FEF60
:102EB000E7EEF3E09150E040F040E1F700C00000A1
:102EC000802F0E94031510C04C2F4F70602FC70138
:102ED0000E9456040E946C1B0FC04C2F4F70602F35
:102EE000C7010E94590408C088EF8C0D843020F47B
:102EF0000E94F7120E94F403DD20C9F00E94C61D53
:102F000080FD15C0F70112820E94C01D0E945B1C4B
:102F1000C7010E94B8170E94C01DDF91CF911F9179
:102F20000F91FF90EF90DF90CF900C947C1CDF917D
:102F3000CF911F910F91FF90EF90DF90CF90089568
:102F40000F931F93CF93DF93EC01688179818A817E
:102F50000E949D1D8C010E94F81C0E94E91BB80173
:102F6000CE010E948015DF91CF911F910F9108959E
:102F7000CF93DF93EC01988189812B813C81232BB6
:102F800031F08F3F31F481E09F3F19F403C081E0BD
:102F900001C080E080FD19C0CE010E940D048111A6
:102FA0000CC00E94CA1D882381F08A81882369F0A1
:102FB00082E0DF91CF910C94691ECE010E94A01790
:102FC000CE01DF91CF910C94D603DF91CF9108957C
:102FD0000E94F11D0E94011E0E941F1E0E94C2231A
:102FE0000E94912280E090E00E942B1380E090E00C
:102FF0000C94411380911701909118010E94E41FD5
:103000000C94E8170E94E11D0C94FA17E92FE29541
:10301000EF704E2F50E0FA013297EE30F105B0F428
:10302000E658FF4F0C94042B803F91F018F4883E33
:1030300068F40EC0843F51F40BC0883E48F0813FD5
:1030400029F406C093FB882780F9089580E008954D
:1030500081E008950E94921D0E9406180895CF9362
:10306000DF9300D000D01F92CDB7DEB70F900F9046
:103070000F900F900F90DF91CF910895CF93DF9332
:1030800000D000D000D0CDB7DEB726960FB6F894AA
:10309000DEBF0FBECDBFDF91CF9108951F93CF93B9
:1030A000DF93C091430216E080914402C81799F063
:1030B000D0E01C9FF0011D9FF00D1124EB5BFD4F34
:1030C0004081518162817381848195810E943E1883
:1030D0002196C770E9CFDF91CF911F91089540915C
:1030E000750250917602609177027091780280911A
:1030F000790290917A020C943E180F931F93CF930C
:10310000DF9380917A0282958F7009F05DC0809183
:103110007702882309F458C0809143021091440239
:103120006091750270917602C0917802D091790217
:1031300091E06F3F09F090E0292F06E0811709F434
:1031400043C0209721F07F3F21F030E003C031E001
:1031500001C0322F90E030FD34C0089FF001099F7C
:10316000F00D1124DF01AB5BBD4F11963C9111971F
:10317000371327C03C91361324C012963C91129706
:1031800031111FC013964D915C9114974C1B5D0B30
:10319000483C5105B0F480917A028F708061809331
:1031A0007A02E65BFD4F80818F708061808385E7C6
:1031B00092E00E94B817DF91CF911F910F910C946C
:1031C0004E1801968770BACFDF91CF911F910F9162
:1031D00008959F92AF92BF92CF92DF92EF92FF92AB
:1031E0000F931F93CF93DF93CDB7DEB761970FB6E1
:1031F000F894DEBF0FBECDBF8C0185E0F801DE0183
:103200001D9601900D928A95E1F7F8014081518158
:10321000E28090917502609176022091780230915F
:1032200079022115310531F06F3F31F481E09F3F84
:1032300019F403C081E001C080E0F82FF1709F2EE7
:1032400080FD46C1F801A380B48085E7C82E82E0E6
:10325000D82EF0907702F501E21BF30BFF2009F462
:10326000DFC080917A02E83CF10508F09BC0282F6E
:10327000207F09F052C0561313C0491311C0FE2C11
:10328000E1100EC08F70806180937A020E946F18E7
:10329000C6010E94B81780917A02F801858358C14F
:1032A000AB2831F05F3F31F481E04F3F19F403C0A8
:1032B00081E001C080E080FD03C081E08E2502C076
:1032C00080E090E0F82FF170FF2E80FF1CC080910D
:1032D00043022091440236E0821709F417C190E0BE
:1032E000389FF001399FF00D1124EB5BFD4F618198
:1032F000561306C06081461303C06281E61203C004
:1033000001968770E9CFFE2CEE2009F421C180914F
:103310007A02816080937A025AC0561306C049131C
:1033200004C0E11002C0F8019FC04D875E878D8503
:103330009E850E942A18882379F1EE2069F1209158
:103340007A02822F82958F7090E0029774F08091BC
:1033500075029091760298878F831986BB86AA861C
:103360002C87CE0107960E94B81786E0F801A5E7E2
:10337000B2E001900D928A95E1F70E947D180E94BB
:103380006F180DC0561729F14D875E878D859E8574
:103390000E942A1881112CC0C8010E94B817FF246E
:1033A000F394D6C0282F207F69F77A2DB98AA88A8E
:1033B0006E2D89890E942F1885E792E00E94B81728
:1033C00086E0F60111928A95E9F70E946F18F12CB8
:1033D000BFC04913D9CFE110D7CFF8018583C80109
:1033E0000E94B81786E0F60111928A95E9F7B0C0FD
:1033F000EE2091F220917A02822F82958F7090E0D8
:1034000002970CF4B2CF80917502909176029A8364
:1034100089831B82BD82AC822E83CE010196A3CF0D
:10342000E83CF10508F047C0FE2CEE2009F4B4CFCB
:10343000561330C049132EC020917A0220FD21C0BE
:10344000822F82958F70482F50E041155105C9F0A9
:10345000F80125834F30510541F08F5F982F9295E9
:10346000907F822F8F70892B8583C8010E94B817A7
:1034700086E0F801A5E7B2E001900D928A95E1F7A8
:1034800042C086E0F801A5E7B2E001900D928A956E
:10349000E1F75EC04D875E878D859E850E942A1864
:1034A000811163CF80917A02816080937A02C80192
:1034B0000E94B8174DC07A2DB98AA88A6E2D8989C5
:1034C0000E942F1886E0F60111928A95E9F71BC039
:1034D000EE2009F461CF4D875E878D859E850E9421
:1034E0002A18F82E882309F457CF86E0F801A5E7BB
:1034F000B2E001900D928A95E1F785E792E00E9493
:103500005F140E947D180E946F1822C04D875E874D
:103510008D859E850E94921D292F22952F70223025
:1035200028F49F7039F0811105C00BC0243028F4B5
:103530009F7049F4805E883020F0C8010E94B8175F
:103540009F2CF92C05C0F8019581907F99F7F9CF50
:103550008F2D61960FB6F894DEBF0FBECDBFDF9101
:10356000CF911F910F91FF90EF90DF90CF90BF9080
:10357000AF909F90089588EC90E008951F93CF93AB
:10358000DF93CDB7DEB72C970FB6F894DEBF0FBE32
:10359000CDBF4F83588769877A878B879C87CE01F9
:1035A00007960E94E9188823D1F09F8188852A8593
:1035B0003B85232B31F08F3F31F481E09F3F19F49D
:1035C00003C081E001C080E080FD47C04F81588585
:1035D00069857A858B859C850E943E183EC086E071
:1035E000FE013796DE01119601900D928A95E1F762
:1035F000FF81E8856A857B856115710531F0EF3FB4
:1036000031F481E0FF3F19F403C081E001C080E0A4
:1036100080FD23C02091440230E0C90101968770EB
:1036200099274091430250E084179507F1F1F983FF
:10363000EA837D836C8396E0929FD001939FB00DC7
:103640001124AB5BBD4FFE01319601900D929A950E
:10365000E1F7809344020E944E1816E080914302E5
:1036600090914402891771F1189FC00111248B5B5E
:103670009D4F0E94E918882329F1E09143021E9F83
:10368000F0011124EB5BFD4F408151816281738118
:10369000848195810E943E188091430290E00196BA
:1036A0008770992780934302D9CF0E940218109205
:1036B000440210924302E5E7F2E086E0DF011D924A
:1036C0008A95E9F72C960FB6F894DEBF0FBECDBFF2
:1036D000DF91CF911F910895EF92FF920F931F9367
:1036E000CF93DF938C01892B09F46CC0F12CEE246D
:1036F000E394E8012196F8018491843740F4843002
:1037000008F051C0813081F0823019F15BC08537FB
:1037100009F444C0A8F19CE7980F903708F052C014
:103720008F770E94031541C00E5F1F4FFE018491E9
:1037300090E2980F983050F48770FE2D01C0FF0F73
:103740008A95EAF78F2F0E94F41D14C00E94651419
:103750002DC00E5F1F4FFE01849190E2980F9830AC
:1037600060F48770FE2D01C0FF0F8A95EAF78F2F56
:103770000E94FA1D0E941F1E19C00E94031516C048
:103780000E5F1F4FFE01C491CC2381F08FE99FE0B3
:103790000197F1F700C00000C150F6CF0E5F1F4F38
:1037A000FE01F49003C00E9465148E018F2D8823C2
:1037B00009F49FCFEFE9FFE03197F1F700C0000077
:1037C0008150F5CFDF91CF911F910F91FF90EF9036
:1037D0000895089508950C94EA1B0C94EB1B0E9425
:1037E000ED1B6093B1027093B2028093B302909389
:1037F000B4020C94E8170C94EF1B0F931F930091E5
:10380000B1021091B2022091B3023091B402602B48
:10381000712B822B932B1F910F910C94EF1B0F9305
:103820001F930091B1021091B2022091B302309126
:10383000B40260237123822393231F910F910C9470
:10384000EF1B0F931F930091B1021091B2022091D0
:10385000B3023091B40260277127822793271F910A
:103860000F910C94EF1B0C94EA1B0E94331C609385
:10387000AD027093AE028093AF029093B0020C94AD
:10388000E81760E070E0CB010C94351C0F931F9398
:1038900041E050E060E070E08A019B0104C0000F4D
:1038A000111F221F331F8A95D2F7C901B8011F913A
:1038B0000F910C94351C0F931F9341E050E060E092
:1038C00070E004C0440F551F661F771F8A95D2F71A
:1038D0008091AD029091AE02A091AF02B091B00282
:1038E0008A019B01082B192B2A2B3B2BC901B801FC
:1038F0001F910F910C94351C0F931F9341E050E0E2
:1039000060E070E004C0440F551F661F771F8A9562
:10391000D2F740955095609570958091AD02909149
:10392000AE02A091AF02B091B0028A019B010823C0
:1039300019232A233B23C901B8011F910F910C942D
:10394000351C0F931F9341E050E060E070E004C02D
:10395000440F551F661F771F8A95D2F78091AD02DD
:103960009091AE02A091AF02B091B0028A019B018A
:10397000082719272A273B27C901B8011F910F9152
:103980000C94351C0F931F930091AD021091AE0261
:103990002091AF023091B002602B712B822B932BC0
:1039A0001F910F910C94351C0F931F930091AD0242
:1039B0001091AE022091AF023091B00260237123CA
:1039C000822393231F910F910C94351C0F931F9307
:1039D0000091AD021091AE022091AF023091B00281
:1039E00060277127822793271F910F910C94351C14
:1039F00008952FE0929F800D1124E82FE695E6951B
:103A0000E695877051E001C0550F8A95EAF785E089
:103A1000E89FF0011124E558FD4F20E030E070E010
:103A20004081CB01022E02C0969587950A94E2F759
:103A30008170819584278523842781932F5F3F4F51
:103A40002530310569F708952FE0929F800D1124EC
:103A5000682F669566956695982F977085E0689FA4
:103A6000B001112440E050E080E0FB01E40FF51FBD
:103A7000E558FD4F208130E0092E02C0369527958C
:103A80000A94E2F721703327042E01C0220F0A9412
:103A9000EAF7822B4F5F5F4F4530510531F70895AC
:103AA000BF92CF92DF92EF92FF920F931F93CF932B
:103AB000DF938C01C090AD02D090AE02E090AF02D7
:103AC000F090B0028091B1029091B202A091B30245
:103AD000B091B402C82AD92AEA2AFB2ACFE1D0E061
:103AE000D701C6010C2E04C0B695A795979587956A
:103AF0000A94D2F780FD04C0219790F7B12C07C03B
:103B0000BC2EB8018C2F0E9475040197A9F38B2D50
:103B1000DF91CF911F910F91FF90EF90DF90CF90A9
:103B2000BF900895CF93DF93EC010E94501DBE011A
:103B30000E947504DF91CF9108951F93CF93DF9377
:103B4000EB0190914202992321F0CB010E94921D3A
:103B500013C0882349F0CB010E94501D182F682FF5
:103B6000CE010E94F91C04C0CB010E94241D182F15
:103B7000BE01812F0E947504DF91CF911F9108959E
:103B80008091B50285958595859508958091B502BA
:103B9000877008959091B502977081E009F480E0F4
:103BA00008958091D90208959091D902892B80932C
:103BB000D902089580959091D90289238093D902E2
:103BC00008951092D90208959091D802892B80937C
:103BD000D802089580959091D80289238093D802C5
:103BE00008951092D80208959091D702892B80935E
:103BF000D702089580959091D70289238093D702A8
:103C000008951092D70208958091B60208950895FC
:103C10000C94071E0C94081E9091B602981721F080
:103C20008093B6020C940A1E08958091B6028823F0
:103C300029F01092B60280E00C940A1E0895E091DB
:103C40001701F09118018091D9028083E09117014A
:103C5000F091180190818091D802892B8083E091A6
:103C60001701F091180190818091D702892B8083F0
:103C70008091B602882381F0E0911701F09118013C
:103C80009081892B808380911701909118010E9467
:103C9000381F81110E94151E809117019091180103
:103CA0000C9403130C94071E98E0899F9001112433
:103CB000262B2093B5020E945B1C8091B50285954E
:103CC000859585950C94521E1092B50280E00C9457
:103CD000521E2091B502809582238093B502982FC1
:103CE000977079F430E0482F082E000C550B2417FC
:103CF000350739F08595859585950E947C1C0C9437
:103D0000641E08956FEF7FEF80E090E00C94D62B57
:103D100080E090E00E94B22B21E08C3E9E4F09F0A3
:103D200020E0822F089582E090E00C94A42B83E0A1
:103D300090E00C94A42BCF9384E090E00E94A42BFD
:103D4000C82F81E290E00E94A42B2C2F30E0A90123
:103D5000582BCA01CF910895CF93C92F682F84E0C3
:103D600090E00E94B82B6C2F81E290E0CF910C94F0
:103D7000B82B86E090E00C94A42B682F86E090E0AE
:103D80000C94B82BAB01BC018FE090E00C94CA2BD3
:103D9000AB01BC0183E190E00C94CA2B60E070E0C1
:103DA000CB010C94C81E60E070E0CB010E94C21EE3
:103DB0000C94CE1E6CEE7EEF80E090E00E94D62B3D
:103DC00060E082E090E00E94B82B60E083E090E049
:103DD0000E94B82B1092B1021092B2021092B3025C
:103DE0001092B40260E084E090E00E94B82B60E0A2
:103DF00081E290E00E94B82B60E085E090E00E94B4
:103E0000B82B60E086E090E00E94B82B6FEF87E06F
:103E100090E00E94B82B40E050E0BA0188E090E0CA
:103E20000E94CA2B60E08DE090E00E94B82B40E039
:103E300050E0BA0188E190E00E94CA2B60E087E17F
:103E400090E00E94B82B40E050E0BA018CE190E095
:103E50000E94CA2B60E080E290E00E94B82B0C9494
:103E6000D31E0C94DA1E682F8EE090E00C94B82BD1
:103E7000FC01329680912B01882331F08091590307
:103E800087FF02C09EE101C096E080E0915028F0DB
:103E900021912223D9F38F5FF9CF0895662351F141
:103EA00020912B012223E9F02091590327FF19C00B
:103EB000462F4695469546954E31E0F4677021E0D1
:103EC00030E002C0220F331F6A95E2F7FC01E40FD5
:103ED000F11D828190E02823392381E0232B69F4AE
:103EE00009C0FC01329608962191621729F0E81763
:103EF000F907D1F780E0089581E008959C01FC0165
:103F000032969FEF80E04191461789F09F3F19F468
:103F1000411101C0982F8F5F8630A9F79F3F39F07C
:103F2000F901E90FF11D97FDFA956283089508954F
:103F30009C012A5F3F4FFC014281461301C012825F
:103F4000019682179307B9F70895262F269526958F
:103F500026952E3168F4FC01E20FF11D677021E017
:103F600030E001C0220F6A95EAF78281282B228374
:103F70000895262F2695269526952E3170F4FC015E
:103F8000E20FF11D677021E030E001C0220F6A9559
:103F9000EAF72095828128232283089520912B011E
:103FA000222329F02091590327FD0C94A51F0C947E
:103FB0007E1F20912B01222329F02091590327FDF8
:103FC0000C94B91F0C94981F20912B01FC01329680
:103FD000222331F08091590387FF02C08EE101C096
:103FE00086E0DF011D928A95E9F7089508950C9403
:103FF000F61F0C94F61FCF930E94F91F0E94C9066A
:104000000E94F71FC0E08C2F0E946406892B29F4C0
:10401000CF5FC530C1F780E001C081E0CF91089546
:104020000C94F61F0C9410200E94122080915F03C4
:10403000843061F11092DB0220E488E190E00FB659
:10404000F894A895809360000FBE2093600080E0F4
:104050000E940F1080E00E94F4030E94122083B798
:10406000817F846083BF83B7816083BF78948895A4
:1040700083B78E7F83BF0FB6F894A89580916000B8
:10408000886180936000109260000FBE08950C94C8
:10409000F61F0E9402180E94000F0E94F7120E9451
:1040A000F4030C9447201F920F920FB60F92112425
:1040B0008F939F93AF93BF938091DB02811113C0C5
:1040C0008091550390915603A0915703B0915803E6
:1040D0004196A11DB11D8093550390935603A09363
:1040E0005703B0935803BF91AF919F918F910F9059
:1040F0000FBE0F901F90189582E084BD93E095BD90
:104100009AEF97BD80936E0008952FB7F894809131
:10411000550390915603A0915703B09158032FBFB8
:1041200008959C014FB7F8948091550390915603E0
:10413000A0915703B09158034FBF821B930B089572
:1041400078941F920F920FB60F9211248F939F9322
:10415000AF93BF938091550390915603A09157035D
:10416000B09158030196A11DB11D80935503909302
:104170005603A0935703B0935803BF91AF919F91FB
:104180008F910F900FBE0F901F90189581E0809334
:10419000E00080E28093D8001092C9008FE19EE495
:1041A0000197F1F700C0000087E090EBDC018093FD
:1041B000680390936903A0936A03B0936B039CE038
:1041C00088E10FB6F894A895809360000FBE909395
:1041D0006000FFCF0C94821E0E94C9068FE39CE909
:1041E0000197F1F700C000000E94C90680E00E941C
:1041F000640680FF04C00E94EA200C94C620089543
:104200000E94881E811102C00E94311F0E94931ECD
:104210008093DA020E949B1E90935A038093590365
:104220000E94971E682F70E080E090E00E94FB1BC8
:104230006091AD027091AE028091AF029091B00298
:104240000C94331C8091E20280FF0BC060911E0130
:1042500085E0689FB0011124759567957595679500
:104260002BC081FF09C060911E0185E0689FB001ED
:1042700011247595679520C082FF07C060911E01CB
:1042800085E0689FB001112417C09091E102992345
:10429000D1F060911D01961788F720911E0185E0ED
:1042A000289F90011124929FA001939F500D1124EB
:1042B00070E0CA010E94CE2A6038710540F4611591
:1042C000710519F406C065E070E0862F08958FE748
:1042D000089581E008958091E20280FF08C0609116
:1042E0001A0170E0759567957595679521C081FFF6
:1042F00006C060911A0170E07595679519C082FF3C
:1043000004C060911A0170E010C09091E0029923FE
:1043100099F0609119019617A0F780911A01899F71
:10432000C001112470E00E94CE2A6038710540F46B
:104330006115710519F406C061E070E0862F0895DB
:104340008FE7089581E00895803F21F40E942221A3
:10435000819504C0813F29F40E9422218093E602C6
:104360000895823F21F40E942221819504C0833F59
:1043700029F40E9422218093E5020895893F19F4CF
:104380000E946B2105C08A3F31F40E946B21819508
:104390008093E70208958B3F21F40E946B21819561
:1043A00004C08C3F29F40E946B218093E802089599
:1043B000843F21F48091E402816017C0853F21F49D
:1043C0008091E402826011C0863F21F48091E40272
:1043D00084600BC0873F21F48091E402886005C0AF
:1043E000883F31F48091E40280618093E402089573
:1043F0008D3F21F48091E20281600BC08E3F21F459
:104400008091E202826005C08F3F29F48091E20230
:1044100084608093E2020895803F39F48091E6023F
:1044200087FF6AC01092E60267C0813F29F480913D
:10443000E6021816BCF360C09091E502823F29F4B1
:1044400097FF5AC01092E50257C0833F19F419161E
:10445000CCF352C09091E702893F31F419160CF069
:104460004BC01092E70248C08A3F19F497FF44C03E
:10447000F8CF8B3F39F48091E80287FF3DC010925E
:10448000E8023AC08C3F29F48091E8021816BCF388
:1044900033C0843F21F48091E4028E7F17C0853FB2
:1044A00021F48091E4028D7F11C0863F21F4809138
:1044B000E4028B7F0BC0873F21F48091E402877F69
:1044C00005C0883F31F48091E4028F7E8093E4023E
:1044D00013C08D3F21F48091E2028E7F0BC08E3F8E
:1044E00021F48091E2028D7F05C08F3F29F48091F5
:1044F000E2028B7F8093E2028091E502811106C087
:104500008091E602811102C01092E1028091E702DF
:10451000811106C08091E802811102C01092E00270
:1045200008950E9485202091E502211104C0209168
:10453000E602222321F09093DF028093DE02209195
:10454000E702211104C02091E802222321F0909378
:10455000DD028093DC0283EE92E00C941D13EF9257
:10456000FF920F931F93CF93DF9300D000D000D022
:10457000CDB7DEB786E0E3EEF2E0DE011196019002
:104580000D928A95E1F7E090E502F090E602009145
:10459000E7021091E8021092E5021092E6021092F2
:1045A000E7021092E802E11003C0FF2009F45DC0A9
:1045B0008091DE029091DF020E949120AC019091E7
:1045C000E102992339F020911F0130E024173507CB
:1045D00058F04BC0209120018AE0289F90011124BF
:1045E0002417350718F041C09F3F19F09F5F909343
:1045F000E102EE2061F00E9422211E1414F09FEFD0
:1046000001C091E0989F902D11249093E502FF2026
:1046100061F00E9422211F1414F09FEF01C091E06D
:10462000989F902D11249093E6023091E502332358
:10463000E1F02091E6022223C1F045EB3403C001F2
:104640001124992319F09093E50203C081E080932F
:10465000E50235EB2303C0011124992319F090934F
:10466000E60203C081E08093E602011103C011233A
:1046700009F45DC08091DC029091DD020E949120DE
:10468000AC019091E002992339F020911B0130E0B8
:104690002417350758F04BC020911C018AE0289F51
:1046A000900111242417350718F041C09F3F19F0DD
:1046B0009F5F9093E002002361F00E946B2110162F
:1046C00014F09FEF01C091E0989F902D11249093DA
:1046D000E702112361F00E946B21111614F09FEF85
:1046E00001C091E0989F902D11249093E8023091A1
:1046F000E7023323E1F02091E8022223C1F045EBE9
:104700003403C0011124992319F09093E70203C0E8
:1047100081E08093E70235EB2303C0011124992344
:1047200019F09093E80203C081E08093E802809141
:10473000E50281110BC08091E602811107C08091D2
:10474000E702811103C08091E80281110E94912249
:10475000EB82FC820D831E8386E0FE013196A3EE80
:10476000B2E001900D928A95E1F726960FB6F89483
:10477000DEBF0FBECDBFDF91CF911F910F91FF9094
:10478000EF900895E3EEF2E086E0DF011D928A9556
:10479000E9F71092E1021092E0021092E20208950D
:1047A000809109030895CF93DF9300D01F92CDB776
:1047B000DEB790915F03943019F589837B836A8318
:1047C00082E08093E9008FEF9091E800815095FDA1
:1047D00006C095ED9A95F1F700008111F5CF809113
:1047E000E80085FF0DC040E050E063E070E0CE01DE
:1047F00001960E9400268091E8008E778093E80061
:104800000F900F900F90DF91CF910895BC0184E03D
:104810000C94D323BC0183E00C94D32322E0209397
:10482000E9002FEF3091E800215035FD06C035ED4D
:104830003A95F1F700002111F5CF2091E80025FF0E
:104840000BC040E050E066E070E00E9400268091DE
:10485000E8008E778093E8000895CF93DF9320914E
:104860002B01222339F02091590327FF03C060E276
:1048700022E002C068E021E02093E9002FEF3091B0
:10488000E800215035FD06C035ED3A95F1F70000FE
:104890002111F5CF2091E80025FF1DC0EC0180918A
:1048A0002B01811105C040E050E068E070E003C0DA
:1048B00070E040E050E0CE010E9400268091E800C8
:1048C0008E778093E80080E2FE01A9EEB2E00190CD
:1048D0000D928A95E1F7DF91CF91089580915E0363
:1048E000811109C00E9491270E94EE278091E20069
:1048F00084608093E200089510925E030895089505
:1049000008950C94492042E061EC81E00E940A275E
:1049100042E261EC82E00C940A27809161038330CB
:1049200009F460C030F4813071F0823009F499C02C
:1049300008958A3009F485C08B3009F46BC0893042
:1049400009F0A7C020C080916003813A09F0A1C09E
:104950008091E800877F8093E800809164039091C4
:104960006503892B21F460E289EE92E003C060E0E8
:1049700080E090E070E00E944B268091E8008B7709
:104980008093E800089580916003813209F081C02E
:104990008091640390916503029708F07AC080913A
:1049A000E800877F8093E8008091E80082FD05C0E1
:1049B00080915F038111F8CF6CC02091F30080914A
:1049C000F20090E0922B029729F48091F1008B7F06
:1049D000813021F48091F100809309038091E800F7
:1049E0008B7753C080916003813A09F052C0809167
:1049F000640390916503892B09F04BC08091E80016
:104A0000877F8093E8008091E80080FFFCCF809151
:104A10002B0136C0809160038132D9F58091640307
:104A200090916503892BA9F58091E800877F809399
:104A3000E8000E943F278091620380932B010C9431
:104A4000021880916003813221F58091E800877F10
:104A50008093E8000E943F278091630380930A03BC
:104A6000089580916003813AA1F48091E800877FE6
:104A70008093E8008091E80080FFFCCF80910A03DA
:104A80008093F1008091E8008E778093E8000C9489
:104A90003F27089584B7877F84BF0FB6F894A89501
:104AA00080916000886180936000109260000FBE6A
:104AB00090E080E80FB6F8948093610090936100D5
:104AC0000FBE0E9467130E9491270E94EE278091DB
:104AD000E20084608093E20078940E94832A0E941E
:104AE000711381E291E00E94F21280915F038530A0
:104AF00069F40E94142080915D038823B1F30E9421
:104B0000FB1F882391F30E94EA25EFCF0E947D13BB
:104B1000ECCF0C948B25292F332723303105C9F096
:104B200060F42130310581F02230310509F04AC0AE
:104B30008BE390E026E235E049C02132310511F1E6
:104B40002232310579F13EC082E190E021E635E084
:104B50003DC099278130910561F040F08230910588
:104B600059F0039779F5E0E0F5E008C0E2E2F5E0FE
:104B700005C0E6E1F5E002C0E6E0F5E0849190E0F2
:104B80009F0124C06115710541F061307105D1F4B8
:104B900089E090E021E535E019C089E090E028E364
:104BA00035E014C06115710541F06130710551F4B3
:104BB0008CEB90E023E735E009C080E490E02FE241
:104BC00036E004C080E090E020E030E0FA0131837C
:104BD0002083089580E189BD82E189BD09B400FE8A
:104BE000FDCF8091D8008F7D8093D8008091E00028
:104BF00082608093E0008091E00081FDFCCF089509
:104C0000CF92DF92EF92FF920F931F93CF93DF9398
:104C1000EC018B017A010E945E27811133C0E114FF
:104C2000F10439F0F70180819181081B190BC80F3D
:104C3000D91FC12CD12C0115110519F18091E80063
:104C400085FD16C08091E8008E778093E800E1141E
:104C5000F10449F0F70180819181C80ED91ED182FB
:104C6000C08285E00FC00E945E27882321F30AC01E
:104C700089918093F10001501109FFEFCF1ADF0AEB
:104C8000DACF80E0DF91CF911F910F91FF90EF90ED
:104C9000DF90CF9008952091660330916703261727
:104CA000370748F06115710539F42091E8002E7737
:104CB0002093E80001C0B901FC0120E061157105F5
:104CC00079F180915F038823F1F18530F1F18091D2
:104CD000E80083FD3CC08091E80082FD2EC08091F9
:104CE000E80080FFEBCF2091F3008091F20090E08C
:104CF000922B6115710551F08830910538F421919E
:104D00002093F100615071090196F3CF21E00897DB
:104D100009F020E08091E8008E778093E800CECF04
:104D20002111CFCF0AC080915F03882361F08530C5
:104D300061F08091E80083FD0AC08091E80082FF65
:104D4000F2CF80E0089582E0089583E0089581E045
:104D5000089520916603309167032617370748F0BE
:104D60006115710539F42091E8002E772093E80051
:104D700001C0B901FC0120E06115710591F180913C
:104D80005F03882309F440C0853009F43FC0809157
:104D9000E80083FD3DC08091E80082FD2FC0809136
:104DA000E80080FFE9CF2091F3008091F20090E0CD
:104DB000922B6115710559F08830910540F42491CA
:104DC0002093F1003196615071090196F2CF21E0F4
:104DD000089709F020E08091E8008E778093E80042
:104DE000CBCF2111CCCF0AC080915F03882361F023
:104DF000853061F08091E80083FD0AC08091E80071
:104E000082FFF2CF80E0089582E0089583E0089564
:104E100081E00895982F973068F59093E9009817EE
:104E200039F07091EC002091ED005091F00003C03A
:104E3000242F762F50E021FD02C09F5FECCF3091F0
:104E4000EB003E7F3093EB003091ED003D7F3093DF
:104E5000ED003091EB0031603093EB007093EC008B
:104E60002093ED005093F0002091EE0027FDE5CF58
:104E700080E008958F708093E90081E0089580912B
:104E8000600387FF11C08091E80082FD05C080911A
:104E90005F038111F8CF11C08091E8008B770BC0C0
:104EA00080915F03882349F08091E80080FFF8CF6C
:104EB0008091E8008E778093E80008952091E400C7
:104EC0003091E50095E64091EC00842F817040FF21
:104ED00023C08091E80080FD1DC080915F0388237E
:104EE00099F0853099F08091EB0085FD11C04091DB
:104EF000E4005091E5002417350729F3915011F093
:104F00009A01E1CF84E0089582E0089583E0089556
:104F100081E0089580E008954091E80042FFDDCFF0
:104F200008950E94FF270E940728E0EEF0E08081AC
:104F300081608083E8EDF0E080818F77808319BC09
:104F4000A7EDB0E08C918E7F8C9380818F7E8083E3
:104F500010925E0308950F931F93CF93DF930E94E7
:104F6000FF270E940728C8EDD0E088818F778883CB
:104F700088818068888388818F7D888319BC10929E
:104F80005F0310925B0310925D0310925C0300EECE
:104F900010E0F80180818B7F808388818160888325
:104FA00042E060E080E00E940A27E1EEF0E08081CC
:104FB0008E7F8083E2EEF0E080818160808380815B
:104FC00088608083F80180818E7F80838881806102
:104FD0008883DF91CF911F910F910895E8EDF0E064
:104FE00080818F7E8083E7EDF0E080818160808327
:104FF00084E082BF81E080935E030C94AB27E8EDF0
:10500000F0E080818E7F80831092E20008951092FC
:10501000DA001092E10008951F920F920FB60F92DE
:1050200011242F933F934F935F936F937F938F93AD
:105030009F93AF93BF93EF93FF938091E10082FF23
:105040000BC08091E20082FF07C08091E1008B7F5E
:105050008093E1000E94822A8091DA0080FF1FC0C5
:105060008091D80080FF1BC08091DA008E7F8093F2
:10507000DA008091D90080FF0DC080E189BD82E116
:1050800089BD09B400FEFDCF81E080935F030E94DB
:105090006E2405C019BC10925F030E947C2480918D
:1050A000E10080FF19C08091E20080FF15C080916F
:1050B000E2008E7F8093E2008091E2008061809325
:1050C000E2008091D80080628093D80019BC85E00E
:1050D00080935F030E9480248091E10084FF30C0B0
:1050E0008091E20084FF2CC080E189BD82E189BD0E
:1050F00009B400FEFDCF8091D8008F7D8093D80049
:105100008091E1008F7E8093E1008091E2008F7EAC
:105110008093E2008091E20081608093E2008091C0
:105120005B03882311F084E007C08091E30087FDD2
:1051300002C081E001C083E080935F030E9481246C
:105140008091E10083FF29C08091E20083FF25C0A8
:105150008091E100877F8093E10082E080935F038C
:1051600010925B038091E1008E7F8093E10080913B
:10517000E2008E7F8093E2008091E2008061809364
:10518000E20042E060E080E00E940A278091F000A7
:1051900088608093F0000E947F24FF91EF91BF917F
:1051A000AF919F918F917F916F915F914F913F91BF
:1051B0002F910F900FBE0F901F9018951F920F9276
:1051C0000FB60F9211242F933F934F935F936F93DA
:1051D0007F938F939F93AF93BF93CF93DF93EF937F
:1051E000FF93C091E900CF708091EC00D82FD1706F
:1051F00080FDD0E81092E9008091F000877F8093D5
:10520000F00078940E9422291092E9008091F00029
:1052100088608093F000CD2BCF70C093E900FF91A0
:10522000EF91DF91CF91BF91AF919F918F917F913E
:105230006F915F914F913F912F910F900FBE0F9003
:105240001F9018951F93CF93DF93CDB7DEB7AA9722
:105250000FB6F894DEBF0FBECDBFE0E6F3E080915D
:10526000F100819323E0E836F207C9F70E948D240C
:105270008091E80083FF2EC18091600390916103CB
:10528000492F50E04A30510508F024C1FA01E8578F
:10529000FF4F0C94042B803821F0823809F01AC19A
:1052A00008C080915C0390915D03992389F082602E
:1052B0000FC0809164038F70873008F00BC180931A
:1052C000E9008091EB0085FB882780F91092E900C6
:1052D0009091E800977F9093E8008093F1001092FE
:1052E000F100D1C0282F2D7F09F0F4C0882319F0D8
:1052F000823061F0EFC080916203813009F0EAC032
:10530000933009F080E080935D032EC080916203AA
:1053100081112AC0809164038F702FEF280F2630EF
:1053200008F0D8C08093E9002091EB0020FF1CC05A
:10533000933021F48091EB00806214C09091EB00D7
:1053400090619093EB0021E030E0A90102C0440F8E
:10535000551F8A95E2F74093EA001092EA00809187
:10536000EB0088608093EB001092E9008091E800E8
:10537000877F8093E8000E943F27ACC08111AAC0BC
:10538000109162031F778091E3008078812B8093D6
:10539000E3008091E800877F8093E8000E943F2728
:1053A0008091E80080FFFCCF8091E30080688093CB
:1053B000E300111102C082E001C083E080935F032B
:1053C00089C08058823008F085C080916203909136
:1053D00063038C3D53E0950779F583E08A838AE285
:1053E00089834FB7F894DE01139620E03EE051E246
:1053F000E32FF0E050935700E49120FF03C0E295C3
:10540000EF703F5FEF708E2F90E0EA3010F0C7969C
:1054100001C0C0968D939D932F5F243149F74FBFF4
:105420008091E800877F8093E8006AE270E0CE0117
:1054300001960E944B2616C060916403709165032B
:10544000AE014F5F5F4F0E948925BC01892B09F493
:1054500041C09091E800977F9093E80089819A81FC
:105460000E94A9268091E8008B778093E80032C0E3
:10547000803881F58091E800877F8093E8008091F3
:105480005B038093F1008091E8008E7772CF8111E9
:1054900021C0809162039091630399270297D4F40D
:1054A0008091E800877F8093E80080916203809379
:1054B0005B030E943F2780915B03811106C08091AE
:1054C000E30087FD02C081E001C084E080935F03B8
:1054D0000E9483248091E80083FF0AC08091E80045
:1054E000877F8093E8008091EB0080628093EB00DF
:1054F000AA960FB6F894DEBF0FBECDBFDF91CF9155
:105500001F9108950895CF9380915F038823A1F0A0
:10551000C091E900CF709091EC00892F817090FDCF
:1055200080E8C82B1092E9008091E80083FD0E947A
:105530002229CF70C093E900CF910895DB018F93AA
:105540009F930E94282BBF91AF91A29F800D911D28
:10555000A39F900DB29F900D11240895991B79E09F
:1055600004C0991F961708F0961B881F7A95C9F7F3
:1055700080950895AA1BBB1B51E107C0AA1FBB1F42
:10558000A617B70710F0A61BB70B881F991F5A95CF
:10559000A9F780959095BC01CD01089597FB072E42
:1055A00016F4009407D077FD09D00E94BA2A07FCB0
:1055B00005D03EF4909581959F4F08957095619523
:1055C0007F4F0895A1E21A2EAA1BBB1BFD010DC03F
:1055D000AA1FBB1FEE1FFF1FA217B307E407F507A3
:1055E00020F0A21BB30BE40BF50B661F771F881F7F
:1055F000991F1A9469F760957095809590959B0115
:10560000AC01BD01CF010895EE0FFF1F0590F4918D
:10561000E02D09940E94122B332312F48A1B9B0B5A
:105620000C94232BA29FB001B39FC001A39F700DC8
:10563000811D1124911DB29F700D811D1124911D9A
:1056400008950E94122BB7FF0895821B930B0895B3
:105650000E94122BA59F900DB49F900DA49F800DCA
:10566000911D11240895B7FF0C94282B0E94282B1C
:10567000821B930B08958F929F92AF92BF92CF920D
:10568000DF92EF92FF92CF93DF93EC0168817981F3
:105690008A819B81611571058105910521F464E280
:1056A00079ED8BE597E02DE133EF41E050E00E948A
:1056B000EC2B49015A019B01AC01A7EAB1E40E941D
:1056C000282B6B017C01ACEEB4EFA50194010E9484
:1056D000362BDC01CB018C0D9D1DAE1DBF1DB7FF10
:1056E00003C00197A109B04888839983AA83BB832B
:1056F0009F77DF91CF91FF90EF90DF90CF90BF9099
:10570000AF909F908F9008950E943B2B089580E06A
:1057100091E00E943B2B0895A0E0B0E0809300014F
:1057200090930101A0930201B09303010895FC013D
:105730004150504030F001900616D1F73197CF011B
:105740000895882799270895F999FECF92BD81BDC4
:10575000F89A992780B50895A6E1B0E044E050E0BA
:105760000C94DE2BA8E1B0E042E050E00C94DE2B7C
:10577000262FF999FECF92BD81BDF89A019700B40A
:10578000021639F01FBA20BD0FB6F894FA9AF99AAA
:105790000FBE08950396272F0E94B92B0E94B82BA5
:1057A000252F0E94B92B242F0C94B92B0196272F5B
:1057B0000E94B92B0C94B82BDC01CB01FC01F999A8
:1057C000FECF06C0F2BDE1BDF89A319600B40D924D
:1057D00041505040B8F70895052E97FB1EF40094F1
:1057E0000E94032C57FD07D00E94E22A07FC03D039
:1057F0004EF40C94032C50954095309521953F4FD5
:105800004F4F5F4F089590958095709561957F4FAC
:0A5810008F4F9F4F0895F894FFCFCB
:10581A0001000000010102001000101001191A1BFA
:10582A001C1D1E1F202122B7022808641E140A32DA
:10583A001ED0232D240E240A24062401E200E900A6
:10584A00EA00B500B600B700CD008301CC008A019A
:10585A009201940121022302240225022602270230
:10586A002A02B300B4006F007000818283F0F1C68F
:10587A006766369431F7353497963332909192931E
:10588A009500010202020206060609090909090928
:10589A000F0F0F0F0F0F15151518191919191919B7
:1058AA00191919192324252525252525E200E9009A
:1058BA00EA00B500B600B700CD008301CC008A012A
:1058CA0092019401210223022402250226022702C0
:0E58DA002A02B300B4006F00700081828300C8
:00000001FF
